:100000000C94B5000C94D2000C94D2000C94D20045
:100010000C94D2000C94D2000C94D2000C94D20018
:100020000C94D2000C94D2000C94D2000C94D20008
:100030000C94D2000C94D2000C94D2000C94D200F8
:100040000C94D2000C94D2000C94D2000C94D200E8
:100050000C94D2000C94D2000C94D2000C94D200D8
:100060000C94D2000C94D2006E616E00696E660032
:1000700000407A10F35A00A0724E18090010A5D45F
:10008000E80000E87648170000E40B54020000CABC
:100090009A3B000000E1F505000080969800000002
:1000A00040420F000000A086010000001027000061
:1000B0000000E803000000006400000000000A00E7
:1000C000000000000100000000002C76D888DC67EA
:1000D0004F0823DFC1DFAE59E1B1B796E5E3E45342
:1000E000C63AE651997696E8E6C28426EB898C9B5F
:1000F00062ED407C6FFCEFBC9C9F40F2BAA56FA5FF
:10010000F490055A2AF75C936B6CF9676DC11BFC80
:10011000E0E40D47FEF520E6B500D0ED902E03009B
:10012000943577050080841E080000204E0A0000E8
:1001300000C80C333333330F986E12831141EF8DA7
:100140002114893BE65516CFFEE6DB18D1844B38E7
:100150001BF77C1D901DA4BBE424203284725E2218
:100160008100C9F124ECA1E53D2711241FBECFEF8A
:10017000D8E0DEBFCDBF11E0A0E0B1E0EEE5FCE1EC
:1001800002C005900D92AA36B107D9F721E0AAE680
:10019000B1E001C01D92A73AB207E1F70E94D40076
:1001A0000C942D0E0C94000060E875E280E090E065
:1001B0000E9482060E94DD0562E08FE00E94BC047E
:1001C00080E00E94A6030E945D04BB24B39468945F
:1001D000AA24A3F86894882482F86894992491F852
:1001E000712C0F2EF4E1CF2EF1E0DF2EF02DC2E7BF
:1001F000D1E00F2EFFE0EF2EF1E0FF2EF02D0F2EBD
:10020000FAE04F2EF1E05F2EF02DF3C182E20E9462
:100210006E04813029F480916E018B2580936E01EC
:100220000E94F7038FE00E94A3052FEF81EE94E078
:10023000215080409040E1F700C000000E944E0431
:1002400020E030E040E251E40E94620820E030E02B
:1002500040E251E40E94C00620E030E040EA51E470
:100260000E942C0720E030E044E353E40E9462083F
:100270000E94A507609370010E94530420E030E0C3
:1002800040E251E40E94620820E030E040E251E4A4
:100290000E94C00620E030E040EA51E40E942C07B2
:1002A00020E030E044E353E40E9462080E94A50786
:1002B00060937A010E94580420E030E040E251E46B
:1002C0000E94620820E030E040E251E40E94C00653
:1002D00020E030E040EA51E40E942C0720E030E0CA
:1002E00044E353E40E9462080E94A50760937101F1
:1002F0006091700187E9860F8C3408F04DC08091C1
:100300007A019FEA980F933120F08150833108F0F1
:100310008CC070E080E090E00E94D40720E030E0E4
:1003200042ED52E40E94BF0620E030E044EB52E48C
:100330000E94620820E030E046E952E40E942C0767
:1003400020E030E044EB52E40E94C0060E94A50782
:1003500060937D0170937E017F936F935F924F92C4
:10036000DF93CF930E94AD0DCE010E949E06FE0149
:100370002A2D11922A95E9F78FEF93EDE0E3815052
:100380009040E040E1F700C000000F900F900F9008
:100390000F900F900F9092C0613508F046C0809189
:1003A0007A019FEA980F933118F081508331E8F574
:1003B00070E080E090E00E94D40720E030E044E369
:1003C00053EC0E94620820E030E040EA52E40E94D0
:1003D0002C0720E030E044E353E40E94C0060E9472
:1003E000A50760937D0170937E017F936F93FF92C9
:1003F000EF92DF93CF930E94AD0DCE010E949E0637
:10040000FE012A2D11922A95E9F78FEF93EDE0E393
:1004100081509040E040E1F700C000000F900F9045
:100420000F900F900F900F9049C080917A01813505
:1004300008F044C09FEA960F9D3118F06150633177
:10044000E8F5682F70E080E090E00E94D40720E09B
:1004500030E04CE852EC0E94620820E030E040EAD4
:1004600052E40E942C0720E030E04CE852E40E9465
:10047000C0060E94A50760937D0170937E017F9363
:100480006F93DF92CF92DF93CF930E94AD0DCE0199
:100490000E949E06FE012A2D11922A95E9F78FEF00
:1004A00093EDE0E381509040E040E1F700C00000B0
:1004B0000F900F900F900F900F900F9080E20E947E
:1004C0006E04082F81E20E946E04182F83E20E94BE
:1004D0006E04682E013039F580916F018B25809371
:1004E0006F0180FF1BC080E091E00E949E06FFEF3D
:1004F00021EE84E0F15020408040E1F700C0000090
:1005000089E191E00E949E069FEFE1EEF4E09150B8
:10051000E040F040E1F700C0000010C180E091E051
:100520000E949E060BC11130E9F401C0072D809195
:100530006F01892580936F0181FF0FC080E091E0FA
:100540000E949E068FE99FE00197F1F700C000002E
:1005500081E291E00E949E06F5C080E091E00E9459
:100560009E06F0C00134E1F401C0172D80916F01A7
:10057000882580936F0182FF0FC080E091E00E9488
:100580009E06EFE9FFE03197F1F700C0000089E235
:1005900091E00E949E0604C080E091E00E949E06C9
:1005A0001334D1F480916F018A2580936F0183FF0A
:1005B0000FC080E091E00E949E068FE99FE00197C6
:1005C000F1F700C0000080E391E00E949E0604C0A5
:1005D00080E091E00E949E0691E069120AC087E3E4
:1005E00091E00E949E06EFE3FCE93197F1F700C02D
:1005F000000080916E01882309F408CE8EE391E01B
:100600000E949E0691C082E20E946E04813029F40D
:1006100080916E018B2580936E010E94F7038FE01D
:100620000E94A305FFEF27E883E1F15020408040BE
:10063000E1F700C000000E94530420E030E040E2F7
:1006400051E40E9462080E949E0770936B016093C0
:100650006A010E944E0420E030E040E251E40E9432
:1006600062080E949E0770936D0160936C01EFE336
:10067000FCE93197F1F700C0000080916A01909188
:100680006B018E3F9F4F6CF48AE491E00E949E06BE
:100690002FEF81EE94E0215080409040E1F700C0C0
:1006A000000080916A0190916B01039754F084E5FA
:1006B00091E00E949E06EFE9FFE03197F1F700C05C
:1006C000000080916C0190916D018E3F9F4F54F41A
:1006D0008DE591E00E949E068FE99FE00197F1F77A
:1006E00000C0000080916C0190916D01039754F05F
:1006F00083E691E00E949E06EFE9FFE03197F1F773
:1007000000C0000080916C0190916D0101960397EB
:1007100058F480916A0190916B010196039720F43F
:1007200080E091E00E949E0680916E01813009F484
:100730006ACF8EE391E00E949E065BCF113009F0F4
:100740002FCFF4CE013409F047CF0FCFCF938830AD
:10075000B1F018F4882331F048C08031E9F08831D5
:1007600041F143C040E050E060E070E44093850117
:1007700050938601609387017093880126C040E002
:1007800050E060E870E440938501509386016093E7
:1007900087017093880119C040E050E060E071E487
:1007A000409385015093860160938701709388017F
:1007B0000CC040E050E060E871E440938501509344
:1007C00086016093870170938801C82F0E94DD0520
:1007D0000E94E60588E60E94FE058CE10E9429063B
:1007E0008C2F0E9429060E946706CF910895CF930F
:1007F000DF930E94E60588E60E94FE058BE30E94D7
:1008000029060E94700688E60E94130681E00E9475
:100810003D06C1EAD1E0888381E00E943D068983DC
:1008200081E00E943D068A8381E00E943D068B8321
:1008300081E00E943D068C8382E00E943D068D830C
:100840000E946706DF91CF910895E62FA82FB0E0B0
:10085000AF55BE4F8C91682F70E0762F6627F0E081
:10086000EF55FE4F8081682B719561957109072EB8
:10087000000C880B990B0E94D607209185013091BE
:10088000860140918701509188010E94620820E012
:1008900030E040E058E30E946208089561E080E0A3
:1008A0000E942504089563E082E00E9425040895D3
:1008B00065E084E00E942504089563E080E20E94E0
:1008C000BC0463E081E20E94BC0463E082E20E9417
:1008D000BC0463E083E20E94BC0408950F931F935D
:1008E000CF93DF9300D0CDB7DEB7182F1A821982CD
:1008F0000E946D05811132C02FEF89EF90E02150E9
:1009000080409040E1F700C00000812F0E946D05FB
:10091000882399F080E029C0023088F42FEF83ED1E
:1009200090E3215080409040E1F700C000008981B1
:100930009A8101969A83898302C000EE010F812F6C
:100940000E946D05882341F389819A81029744F0C2
:10095000103241F0113241F483E407C080E005C059
:1009600081E003C081E401C081E00F900F90DF912E
:10097000CF911F910F9108959DEC899F912D112486
:10098000969596959695392F330F232F220F220F88
:10099000230F821B6230B9F1633009F462C0613009
:1009A00009F09AC0923099F09330F9F0913009F043
:1009B00093C044B121E030E0B90102C0660F771F57
:1009C0008A95E2F7CB018095842384B9089547B1D5
:1009D00021E030E0B90102C0660F771F8A95E2F787
:1009E000CB018095842387B908954AB121E030E096
:1009F000B90102C0660F771F8A95E2F7CB01809597
:100A000084238AB90895923091F09330E9F09130BF
:100A100009F062C044B121E030E0B90102C0660FC4
:100A2000771F8A95E2F7CB01842B84B9089547B1EB
:100A300021E030E0B90102C0660F771F8A95E2F726
:100A4000CB01842B87B908954AB121E030E0B90188
:100A500002C0660F771F8A95E2F7CB01842B8AB913
:100A600008959230B1F0933031F19130A9F544B14D
:100A700021E030E0B90102C0660F771F8A95E2F7E6
:100A8000CB01962F9095942394B995B1892B85B974
:100A9000089547B121E030E0B90102C0660F771F29
:100AA0008A95E2F7CB01962F9095942397B998B148
:100AB000892B88B908954AB121E030E0B90102C01C
:100AC000660F771F8A95E2F7CB01962F90959423B6
:100AD0009AB99BB1892B8BB908959DEC899F912D73
:100AE0001124292F269526952695220F322F330F74
:100AF000330F230F821B282F892F86958695869585
:100B0000823069F08330A1F08130D9F483B190E074
:100B100002C0959587952A95E2F78170089586B170
:100B200090E002C0959587952A95E2F78170089527
:100B300089B190E002C0959587952A95E2F781707A
:100B4000089580E008959DEC899F912D1124292F0F
:100B5000269526952695220F322F330F330F230F1C
:100B6000821B282F892F869586958695823079F06D
:100B70008330C1F0813001F535B181E090E002C0F1
:100B8000880F991F2A95E2F7832785B9089538B110
:100B900081E090E002C0880F991F2A95E2F7832731
:100BA00088B908953BB181E090E002C0880F991F99
:100BB0002A95E2F783278BB9089583E08093B800E4
:100BC000ECEBF0E08081846080830895ECEBF0E052
:100BD00080818062808380818F7E808380818F7B13
:100BE000808380818068808380818823ECF7E9EBB3
:100BF000F0E08081887F8830E1F70895880F809346
:100C0000BB00ECEBF0E080818F7D80838081806889
:100C1000808380818823ECF7E9EBF0E08081887F96
:100C20008831E1F70895880F81608093BB00ECEB79
:100C3000F0E080818F7D80838081806880838081E7
:100C40008823ECF7E9EBF0E08081887F8034E1F7DE
:100C500008958093BB00ECEBF0E080818F7D808372
:100C600080818068808380818823ECF7E9EBF0E065
:100C70008081887F8832E1F708958130C1F4ECEB00
:100C8000F0E080818F7D808380818F7E8083808172
:100C90008064808380818068808380818823ECF7F2
:100CA000E9EBF0E08081887F8035E1F70DC082308C
:100CB00059F4ECEBF0E080818F7B80838081806849
:100CC000808380818823ECF78091BB000895ECEB52
:100CD000F0E08081806180838081806880830895D6
:100CE000ECEBF0E08081806280838081806880838B
:100CF00080818823ECF7E9EBF0E08081887F803108
:100D0000E1F708951092C50087E68093C40061E082
:100D10008EE10E94BC0462E08FE10E94BC0488E185
:100D20008093C10086E08093C20008958093C6003E
:100D3000E0ECF0E0808185FFFDCF08950F931F93D5
:100D4000CF93DF93FC0101900020E9F73197DE2F6C
:100D5000D81B81F08C01C0E0F80181918F010E94C5
:100D600096068FE99FE00197F1F700C00000CF5F82
:100D7000DC13F2CFDF91CF911F910F91089550585E
:100D8000BB27AA270E94D7060C9428080E941A089D
:100D900038F00E94210820F039F49F3F19F426F41E
:100DA0000C9417080EF4E095E7FB0C941108E92F5A
:100DB0000E94390858F3BA1762077307840795072A
:100DC00020F079F4A6F50C945B080EF4E0950B2E58
:100DD000BA2FA02D0B01B90190010C01CA01A0018D
:100DE0001124FF27591B99F0593F50F4503E68F1E8
:100DF0001A16F040A22F232F342F4427585FF3CF29
:100E0000469537952795A795F0405395C9F77EF4F9
:100E10001F16BA0B620B730B840BBAF09150A1F042
:100E2000FF0FBB1F661F771F881FC2F70EC0BA0FC8
:100E3000621F731F841F48F4879577956795B79550
:100E4000F7959E3F08F0B0CF9395880F08F099274B
:100E5000EE0F9795879508950E9440070C942808F7
:100E60000E94210858F00E941A0840F029F45F3FC0
:100E700029F00C94110851110C945C080C9417087B
:100E80000E94390868F39923B1F3552391F3951B18
:100E9000550BBB27AA2762177307840738F09F5F9B
:100EA0005F4F220F331F441FAA1FA9F335D00E2E08
:100EB0003AF0E0E832D091505040E695001CCAF775
:100EC0002BD0FE2F29D0660F771F881FBB1F261738
:100ED00037074807AB07B0E809F0BB0B802DBF010F
:100EE000FF2793585F4F3AF09E3F510578F00C94DE
:100EF00011080C945C085F3FE4F3983ED4F38695A8
:100F000077956795B795F7959F5FC9F7880F911DFE
:100F10009695879597F90895E1E0660F771F881FEA
:100F2000BB1F621773078407BA0720F0621B730B9D
:100F3000840BBA0BEE1F88F7E09508950E94A50771
:100F40006894B1110C945C0808950E94410888F0DF
:100F50009F5798F0B92F9927B751B0F0E1F0660F7D
:100F6000771F881F991F1AF0BA95C9F714C0B130BE
:100F700091F00E945B08B1E008950C945B08672F24
:100F8000782F8827B85F39F0B93FCCF386957795ED
:100F90006795B395D9F73EF49095809570956195D6
:100FA0007F4F8F4F9F4F0895E89409C097FB3EF401
:100FB00090958095709561957F4F8F4F9F4F9923A6
:100FC000A9F0F92F96E9BB279395F6958795779524
:100FD0006795B795F111F8CFFAF4BB0F11F460FFE4
:100FE0001BC06F5F7F4F8F4F9F4F16C0882311F03C
:100FF00096E911C0772321F09EE8872F762F05C050
:10100000662371F096E8862F70E060E02AF09A95EA
:10101000660F771F881FDAF7880F9695879597F9DF
:10102000089597F99F6780E870E060E008959FEF6A
:1010300080EC089500240A9416161706180609066F
:10104000089500240A94121613061406050608953E
:10105000092E0394000C11F4882352F0BB0F40F4C6
:10106000BF2B11F460FF04C06F5F7F4F8F4F9F4F06
:10107000089557FD9058440F551F59F05F3F71F088
:101080004795880F97FB991F61F09F3F79F08795EF
:101090000895121613061406551FF2CF4695F1DF78
:1010A00008C0161617061806991FF1CF8695710508
:1010B000610508940895E894BB2766277727CB013C
:1010C00097F908950E9475080C9428080E941A0840
:1010D00038F00E94210820F0952311F00C9411089B
:1010E0000C94170811240C945C080E94390870F3C2
:1010F000959FC1F3950F50E0551F629FF001729FBD
:10110000BB27F00DB11D639FAA27F00DB11DAA1FCB
:10111000649F6627B00DA11D661F829F2227B00D18
:10112000A11D621F739FB00DA11D621F839FA00DA3
:10113000611D221F749F3327A00D611D231F849FF3
:10114000600D211D822F762F6A2F11249F5750404A
:101150009AF0F1F088234AF0EE0FFF1FBB1F661FC5
:10116000771F881F91505040A9F79E3F510580F08E
:101170000C9411080C945C085F3FE4F3983ED4F3A0
:10118000869577956795B795F795E7959F5FC1F732
:10119000FE2B880F911D9695879597F90895A0E1EC
:1011A000B0E0E5EDF8E00C944C0C7C011B016A0109
:1011B000FC0117821682838181FF44C39E012F5F49
:1011C0003F4F3901F7019381F10193FD859193FF21
:1011D00081911F01882309F431C3853239F493FDCD
:1011E000859193FF81911F01853239F4B70190E019
:1011F0000E94710D56016501E5CF10E0512C912C34
:10120000FFE1F915D8F08B3279F038F4803279F0BB
:101210008332A1F4F92DF0612EC08D3261F080335C
:1012200069F4292D21602DC0392D3260932E892D2E
:101230008460982E2AC0E92DE86015C097FC2DC067
:1012400020ED280F2A3088F496FE06C03AE0139F5E
:10125000200D1124122F19C08AE0589E200D112450
:10126000522EE92DE0629E2E10C08E3231F496FC93
:10127000E5C2F92DF0649F2E08C08C3621F4292D8B
:101280002068922E02C0883641F4F10193FD8591C9
:1012900093FF81911F018111B3CF9BEB980F933086
:1012A00020F4992D9061805E07C09BE9980F9330E0
:1012B00008F066C1992D9F7E96FF16E09F73992EC8
:1012C000853619F49064992E08C0863621F4392F9A
:1012D0003068932E02C01111115097FE07C01C33C5
:1012E00050F444244394410E27E00BC0183038F0EA
:1012F00027E017E005C027E09CE3492E02C0212F1C
:10130000412C560184E0A80EB11CF6016081718168
:1013100082819381042DA3010E94830C6C01F981C9
:10132000FC87F0FF02C0F3FF06C091FC06C092FEEE
:1013300006C000E205C00DE203C00BE201C000E000
:101340008C858C7019F001115AC29BC297FE10C097
:101350004C0CFC85F4FF04C08A81813309F44A9463
:10136000141474F528E0241578F588E0482E2CC074
:1013700096FC2AC0812F90E08C159D059CF03CEFD7
:10138000C3163FEFD30674F0892D8068982E0AC0EB
:10139000E2E0F0E0EC0FFD1FE10FF11D80818033F2
:1013A00019F411501111F4CF97FE0EC04424439448
:1013B000410E812F90E0C816D9062CF41C1904C0E8
:1013C0004424439401C010E097FE06C01C141D0481
:1013D00034F4C601019605C085E090E002C081E0CA
:1013E00090E001110196112331F0212F30E02F5FA1
:1013F0003F4F820F931F252D30E08217930714F47F
:10140000581A01C0512C892D897049F4552039F0A2
:10141000B70180E290E00E94710D5A94F7CF00234B
:1014200029F0B701802F90E00E94710D93FC09C054
:10143000552039F0B70180E390E00E94710D5A9475
:10144000F7CF97FE4CC04601D7FE02C0812C912CED
:10145000C60188199909F301E80FF91FFE87ED8786
:10146000960124193109388B2F87012F10E011952F
:10147000019511093FEF8316930629F4B7018EE217
:1014800090E00E94710DC814D9044CF08F859889A2
:101490008815990524F4ED85FE85818101C080E3DE
:1014A000F1E08F1A91082D853E852F5F3F4F3E87D3
:1014B0002D87801691062CF0B70190E00E94710DE7
:1014C000D9CFC814D90441F49A81963320F49533C6
:1014D00019F43C8534FF81E3B70190E04EC08A8166
:1014E000813319F09C859F7E9C87B70190E00E9414
:1014F000710D111105C094FC18C085E690E017C06D
:10150000B7018EE290E00E94710D1E5F82E001E063
:10151000080FF301E80FF11D8081B70190E00E94F0
:10152000710D802F0113F3CFE6CF85E490E0B70172
:101530000E94710DD7FC06C0C114D10441F4EC85A2
:10154000E4FF05C0D194C194D1088DE201C08BE2C3
:10155000B70190E00E94710D80E32AE0C216D10429
:101560002CF08F5FFAE0CF1AD108F7CFB70190E0E7
:101570000E94710DB701C601C0960E94710D54C141
:10158000833631F0833779F0833509F056C020C0B7
:10159000560132E0A30EB11CF6018081898301E07F
:1015A00010E0630112C05601F2E0AF0EB11CF6016B
:1015B000C080D18096FE03C0612F70E002C06FEF43
:1015C0007FEFC6010E94660D8C01F92DFF7714C0D4
:1015D000560122E0A20EB11CF601C080D18096FE19
:1015E00003C0612F70E002C06FEF7FEFC6010E9461
:1015F0005B0D8C01F92DF0689F2EF3FD1AC0852D2F
:1016000090E008171907A8F4B70180E290E00E9463
:10161000710D5A94F4CFF60197FC859197FE819154
:101620006F01B70190E00E94710D51105A94015062
:1016300011090115110579F7F7C0843611F08936C3
:1016400061F5560197FE09C024E0A20EB11CF60117
:1016500060817181828193810AC0F2E0AF0EB11C7A
:10166000F60160817181072E000C880B990BF92D12
:10167000FF769F2E97FF09C0909580957095619594
:101680007F4F8F4F9F4FF0689F2E2AE030E0A301DD
:101690000E94CF0DC82EC6183FC0092D853721F4F2
:1016A0000F7E2AE030E01DC0097F8F3691F018F4DC
:1016B000883559F0C3C0803719F0883711F0BEC0A3
:1016C000006104FF09C0046007C094FE08C0066002
:1016D00006C028E030E005C020E130E002C020E193
:1016E00032E0560107FF09C084E0A80EB11CF601E4
:1016F000608171818281938108C0F2E0AF0EB11CDC
:10170000F6016081718180E090E0A3010E94CF0D1D
:10171000C82EC6180F77902E96FE0BC0092D0E7F8F
:10172000C11650F494FE0AC092FC08C0092D0E7E2A
:1017300005C0DC2C092D03C0DC2C01C0D12E04FF18
:101740000DC0FE01EC0DF11D8081803311F4097E86
:1017500009C002FF06C0D394D39404C0802F8678BA
:1017600009F0D39403FD11C000FF06C01C2DD51451
:1017700080F4150D1D190DC0D51458F4B70180E281
:1017800090E00E94710DD394F7CFD51410F45D183A
:1017900001C0512C04FF10C0B70180E390E00E940B
:1017A000710D02FF17C001FD03C088E790E002C081
:1017B00088E590E0B7010CC0802F867859F001FFD2
:1017C00002C08BE201C080E207FD8DE2B70190E02C
:1017D0000E94710DC11638F4B70180E390E00E94B9
:1017E000710D1150F7CFCA94F301EC0DF11D8081FA
:1017F000B70190E00E94710DC110F5CF15C0F4E063
:10180000F51560F584E0581A93FE1FC0011127C03A
:101810002C8523FF2AC008E610E0392D3071932E65
:10182000F8018491811124C0552009F4E4CCB7015A
:1018300080E290E00E94710D5A94F6CFF701868104
:10184000978126C08FEF9FEF23C0B70180E290E021
:101850000E94710D5A945110F8CFD8CF512CB70176
:10186000802F90E00E94710DD3CF0CE610E0D5CF11
:1018700091108052B70190E00E94710D0F5F1F4FD1
:10188000CFCF23E0251510F483E0BDCF512CC0CF7E
:101890006096E2E10C94680C2F923F924F925F9217
:1018A0006F927F928F929F92AF92BF92CF92DF9270
:1018B000EF92FF920F931F93CF93DF93CDB7DEB7D5
:1018C000CA1BDB0B0FB6F894DEBF0FBECDBF099469
:1018D0002A88398848885F846E847D848C849B84C0
:1018E000AA84B984C884DF80EE80FD800C811B81CE
:1018F000AA81B981CE0FD11D0FB6F894DEBF0FBEFD
:10190000CDBFED010895283008F027E03327DA0134
:10191000990F311D87FD916000966105710539F4BD
:1019200032602E5F3D9330E32A95E1F708959F3FA3
:1019300030F080387105610509F03C5F3C5F3D93F4
:10194000913008F08068911DDF93CF931F930F9320
:10195000FF92EF92192F987F9695E92F969596957D
:10196000E90FFF27E653FF4F99273327EE24FF2483
:10197000A701E70105900894079428F4360FE71EA5
:10198000F81E491F511D660F771F881F991F069467
:10199000A1F70590079428F4E70EF81E491F561F7B
:1019A000C11D770F881F991F661F0694A1F7059028
:1019B000079428F4F80E491F561FC71FD11D880F22
:1019C000991F661F771F0694A1F70590079420F4CE
:1019D000490F561FC71FD81F990F661F771F881FF3
:1019E0000694A9F784911095177041F0D695C79584
:1019F00057954795F794E7941A95C1F7E0E7F0E01B
:101A000068941590159135916591959105907FE2B7
:101A10007395E118F10A430B560BC90BD009C0F7B7
:101A2000E10CF11E431F561FC91FD01D7EF47033F9
:101A300011F48A95E6CFE894015030F0080F0AF4CB
:101A40000027021708F4202F2395022F7A3328F05D
:101A500079E37D932A95E9F710C07D932A9589F65D
:101A6000069497956795379517951794E118F10A9D
:101A7000430B560BC90BD00998F023957E917395B3
:101A80007A3308F070E37C932013B8F77E9170618D
:101A90007D9330F0839571E37D9370E32A95E1F7B0
:101AA0001124EF90FF900F911F91CF91DF91992713
:101AB00087FD90950895FC010590615070400110DC
:101AC000D8F7809590958E0F9F1F0895FC01615067
:101AD000704001900110D8F7809590958E0F9F1F50
:101AE00008950F931F93CF93DF93FB01238121FD73
:101AF00003C08FEF9FEF2CC022FF16C04681578195
:101B0000248135814217530744F4A081B1819D019E
:101B10002F5F3F4F318320838C93268137812F5F46
:101B20003F4F3783268314C08B01EC01FB010084F7
:101B3000F185E02D0995892BE1F6D80116968D9156
:101B40009C911797019617969C938E931697CE01AA
:101B5000DF91CF911F910F910895AEE0B0E0E3EBDC
:101B6000FDE00C945A0C0D891E8986E08C831A8343
:101B700009838FEF9FE79E838D83AE01475E5F4FA2
:101B80006F89788DCE0101960E94CF08EF81F8858C
:101B9000E00FF11F10822E96E4E00C94760CFA010F
:101BA000AA27283051F1203181F1E8946F936E7F9C
:101BB0006E5F7F4F8F4F9F4FAF4FB1E03ED0B4E08D
:101BC0003CD0670F781F891F9A1FA11D680F791FCE
:101BD0008A1F911DA11D6A0F711D811D911DA11DDF
:101BE00020D009F468943F912AE0269F11243019EF
:101BF000305D3193DEF6CF010895462F4770405D8A
:101C00004193B3E00FD0C9F7F6CF462F4F70405D38
:101C10004A3318F0495D31FD4052419302D0A9F793
:101C2000EACFB4E0A6959795879577956795BA958D
:101C3000C9F700976105710508959B01AC010A2E53
:101C400006945795479537952795BA95C9F7620F2A
:0E1C5000731F841F951FA01D0895F894FFCFE9
:101C5E0053746F700D0A000000005825750D005961
:101C6E0025750D005A25750D00436C6170702B0A99
:101C7E0000436C6170702D0A00426173652B0A007F
:101C8E00426173652D0A0052657365740A005377BD
:101C9E00697463684D6F64650D004261636B7761B3
:101CAE0072640D00466F72776172640D004C65664A
:0A1CBE00740D0052696768740D0090
:00000001FF
