:100000000C942A000C9447000C9447000C94470071
:100010000C9447000C9447000C9447000C94470044
:100020000C9447000C9447000C9425070C9447004F
:100030000C9447000C948C070C9447000C944700D8
:100040000C9447000C9447000C9447000C94470014
:100050000C94470011241FBECFE5D8E0DEBFCDBF12
:1000600010E0A0E6B0E0E8E7FAE102C005900D92EA
:10007000A43FB107D9F721E0A4EFB0E001C01D9281
:10008000A432B207E1F70E9493000C943A0D0C944D
:10009000000064E670E08FE091E00E94300A892B56
:1000A00069F49091F40081E089278093F40080E165
:1000B000EFE0F1E0DF011D928A95E9F7089580E114
:1000C000EFE0F1E0DF011D928A95E9F780910A01E6
:1000D0008F3040F58CB1882321F08A3011F08D30BB
:1000E000B1F4E0910A01F0E0E650FF4F1082109267
:1000F0000A016AEF70E08FE091E00E94250A80E13A
:10010000EAEFF0E0DF011D928A95E9F70895E091AA
:100110000A01F0E0E650FF4F808380910A018F5F73
:1001200080930A0108950E94150789E490E00E94D7
:1001300020070E9476078FE590E00E94870761E024
:100140008AE20E94030661E08AE20E948C067894AB
:100150000E9485052FEF83ED90E321508040904071
:10016000E1F700C000000E9406048FE690E00E94C4
:100170003A04AFEFB3ED20E3A150B0402040E1F7E7
:1001800000C000000E9415050E94120360916100EA
:1001900080E00E94AD056091F80087E00E94AD0507
:1001A0006091600082E00E94AD05C4E16C2F84E0A4
:1001B0000E94AD058FE39CE90197F1F700C00000B4
:1001C000CF5FC63499F764E184E00E94AD051092D8
:1001D000F6001092F5008AE08093F700DAE566C138
:1001E0006091630080E00E94AD056091F90087E0B6
:1001F0000E94AD056091620082E00E94AD0560E062
:1002000080E00E94190585E790E00E943A0460E0D2
:1002100081E00E9419056091630070E080E090E049
:100220000E94C6080E94500467E081E00E94190500
:100230006091F90070E080E090E00E94C6080E94A2
:1002400050046BE081E00E9419056091620070E04B
:1002500080E090E00E94C6080E9450049FEFA1EE4B
:10026000B4E09150A040B040E1F700C000008091A0
:100270000F018835F1F4EFE0F1E001900020E9F79B
:10028000AF014151514060E171E080E291E00E9494
:10029000390A80E291E00E94070A809363000E947D
:1002A000150584E0E0E2F1E0DF011D928A95E9F7AF
:1002B00040C08935F1F4EFE0F1E001900020E9F76A
:1002C000AF014151514060E171E080E291E00E9454
:1002D000390A80E291E00E94070A8093F90084E0E5
:1002E000E0E2F1E0DF011D928A95E9F70E94150531
:1002F00020C08A35F1F4EFE0F1E001900020E9F749
:100300003197AF014F50514060E171E080E291E0E0
:100310000E94390A80E291E00E94070A80936200FD
:1003200084E0E0E2F1E0DF011D928A95E9F70E94A6
:10033000150565E870E08FE091E00E94300A892B96
:1003400051F5C091F700CB3530F01FC08B3518F058
:10035000D093F7001AC06CE870E08FE091E00E9443
:10036000300A892B91F06C2F84E00E94AD058FE359
:100370009CE90197F1F700C00000CF5F8091F70082
:100380008F5F8093F700CB3509F76AEF70E08FE05D
:1003900091E00E94250A61E970E08FE091E00E94FF
:1003A000300A892B51F5C091F700C11105C060E0FA
:1003B00084E00E94AD051BC06CE870E08FE091E026
:1003C0000E94300A892B99F06C2F84E00E94AD05C1
:1003D000AFE3BCE91197F1F700C00000C150809174
:1003E000F70081508093F7008111E6CFE0CF6AEFEC
:1003F00070E08FE091E00E94250A68E970E08FE0EC
:1004000091E00E94300A892BA9F480E00E94EB055C
:10041000BFEF21EE84E0B15020408040E1F700C002
:10042000000082E00E94EB056AEF70E08FE091E04F
:100430000E94250A6EE970E08FE091E00E94300A88
:10044000892BA9F481E00E94EB059FEFA1EEB4E0B7
:100450009150A040B040E1F700C0000082E00E944F
:10046000EB056AEF70E08FE091E00E94250A64EAF4
:1004700070E08FE091E00E94300A892BB9F460911E
:10048000610080E00E94AD056091600082E00E9402
:10049000AD056091F80087E00E94AD050E9415054A
:1004A0006AEF70E08FE091E00E94250A8091F400ED
:1004B000882309F495CE0E941505AEC060E080E067
:1004C0000E9419058AEA90E00E943A046CE870E004
:1004D0008FE091E00E94300A892B19F40E94770383
:1004E0009BC065EB70E08FE091E00E94300A892BA1
:1004F000F9F460E081E00E9419058DEB90E00E9424
:100500003A040E9433032FEF83ED90E321508040A3
:100510009040E1F700C000000E947703AFEFB3ED19
:1005200020E3A150B0402040E1F700C0000074C0BB
:1005300061EC70E08FE091E00E94300A892BF9F4C1
:1005400060E081E00E9419058AEC90E00E943A0484
:100550000E9444038FEF93EDA0E381509040A040B0
:10056000E1F700C000000E947703BFEF23ED80E3B6
:10057000B15020408040E1F700C000004DC06EEC5B
:1005800070E08FE091E00E94300A892BF9F460E07E
:1005900081E00E94190583ED90E00E943A040E94D8
:1005A00055039FEFA3EDB0E39150A040B040E1F7B9
:1005B00000C000000E9477032FEF83ED90E32150ED
:1005C00080409040E1F700C0000026C067ED70E079
:1005D0008FE091E00E94300A892BF1F460E081E025
:1005E0000E9419058DED90E00E943A040E94660376
:1005F000AFEFB3ED20E3A150B0402040E1F700C0E1
:1006000000000E9477038FEF93EDA0E381509040AC
:10061000A040E1F700C000008091F400813009F4AF
:100620004DCF44CF61E08AE10E94030661E08BE197
:100630000E94030661E089E10E94030661E088E10F
:100640000E94030662E08AE10E948C0662E089E172
:100650000E948C0662E08BE10E948C0662E088E1D9
:100660000E948C06089561E08AE10E948C0661E098
:1006700089E10E948C0662E08BE10E948C0662E0B8
:1006800088E10E948C06089562E08AE10E948C064F
:1006900062E089E10E948C0661E08BE10E948C0699
:1006A00061E088E10E948C06089561E089E10E9482
:1006B0008C0662E08AE10E948C0662E08BE10E9477
:1006C0008C0662E088E10E948C06089562E089E170
:1006D0000E948C0661E08AE10E948C0662E08BE158
:1006E0000E948C0662E088E10E948C06089562E018
:1006F00089E10E948C0662E08AE10E948C0662E039
:100700008BE10E948C0662E088E10E948C060895CD
:10071000CF93C82F61E085E10E948C068BB39C2F9C
:10072000907F8F70892B8BBB61E084E10E948C06E7
:100730008FE99FE00197F1F700C0000062E084E1DB
:100740000E948C068FE19EE40197F1F700C0000043
:100750002BB330E1C39FC0011124922F9F70892BCE
:100760008BBB61E084E10E948C068FE99FE00197DA
:10077000F1F700C0000062E084E10E948C068FE186
:100780009EE40197F1F700C00000CF910895CF9348
:10079000C82F62E085E10E948C068BB39C2F907F6E
:1007A0008F70892B8BBB61E084E10E948C068FE9FE
:1007B0009FE00197F1F700C0000062E084E10E9431
:1007C0008C068FE19EE40197F1F700C000002BB387
:1007D00030E1C39FC0011124922F9F70892B8BBBE6
:1007E00061E084E10E948C068FE99FE00197F1F7B8
:1007F00000C0000062E084E10E948C068FE19EE46C
:100800000197F1F700C00000CF91089561E08EE0FC
:100810000E94030661E08FE00E94030661E080E130
:100820000E94030661E081E10E94030661E085E128
:100830000E94030661E084E10E9403062FEF83ED2E
:1008400090E3215080409040E1F700C0000083E336
:100850000E94C70382E30E94C70388E20E94C70385
:100860008CE00E94C70381E00E94C70382E00E94DF
:10087000C70308950F931F93CF93FC0180818823B2
:1008800059F08F01C0E00E948803CF5FF801EC0FA0
:10089000F11D80818111F7CFCF911F910F910895A4
:1008A0004F925F926F927F92AF92BF92CF92DF9200
:1008B000EF92FF921F93CF93DF93CDB7DEB764978C
:1008C0000FB6F894DEBF0FBECDBF6B017C01FE01F9
:1008D00031968AE0DF011D928A95E9F720E030E049
:1008E000A901C701B6010E942008811104C080E35C
:1008F0000E94880386C0C701B6010E9497080E9423
:10090000C6089B01AC01C701B6010E9420088823DC
:10091000C9F0FF92EF92DF92CF9281EE90E09F9329
:100920008F937E01BBE0EB0EF11CFF92EF920E94D1
:10093000500AC7010E943A040FB6F894DEBF0FBEFA
:10094000CDBF5FC020E030E0A901C701B6010E9421
:10095000200888238CF48DE20E948803F7FAF09433
:10096000F7F8F09420E030E0A901C701B6010E9439
:100970002008882309F445C010E00F2EFAE04F2E1E
:10098000512C612C712CF02D01C01B2DAA24A39495
:10099000B12CAC0EBD1EA10EB11C17FDBA94C7013F
:1009A000B6010E949708A30192010E94E509D501B2
:1009B0006C93BB24B394B10E20E030E040E251E4EC
:1009C000C701B6010E9425080E9497080E94C60828
:1009D0006B017C0120E030E0A9010E942008811118
:1009E000D4CF112374F0E1E0F0E0EC0FFD1FE10F34
:1009F000F11D17FDFA958081805D0E9488031150DA
:100A000092F764960FB6F894DEBF0FBECDBFDF91AC
:100A1000CF911F91FF90EF90DF90CF90BF90AF905C
:100A20007F906F905F904F90089581E00E94C70380
:100A30000895CF93DF9300D0CDB7DEB790E89983C8
:100A400090EC9A83FE01E80FF11D8181860F0E94D0
:100A5000C7030F900F90DF91CF9108950E94520726
:100A600081E090E00E94500480E40E945C0782E0F4
:100A700090E00E94500480E00E94680783E090E0CC
:100A80000E94500481E30E94680784E090E00E9485
:100A900050040E9473078FE99FE00197F1F700C0AF
:100AA00000000E94520780E40E945C078EEF0E94C3
:100AB00068078AE70E9468070E9473078FE99FE032
:100AC0000197F1F700C000000E94520780E40E94E5
:100AD0005C0780E00E94680781EA0E9468070E9424
:100AE00073078FE99FE00197F1F700C000000E94B3
:100AF000520780E40E945C0781E00E94680784E05E
:100B00000E9468070E94730708950E944C070E9484
:100B10002E0508951F93CF93DF93182FD92FC62F3B
:100B20000E94520780E40E945C078C2F880F880F78
:100B30008A5F0E94680780E00E94680780E00E9448
:100B40006807812F0E9468078D2F0E9468070E9406
:100B50007307DF91CF911F910895CF93C82F8330F2
:100B6000D9F470E080E090E00E94C80820E030E016
:100B700044EB53E40E94250820E030E04DEA53E4C2
:100B80000E94780920E030E04CE453E40E94B4076E
:100B90000E949708CB011AC070E080E090E00E94AC
:100BA000C80820E030E044E353E40E94250820E038
:100BB00030E04DEA53E40E94780920E030E04CE454
:100BC00053E40E94B4070E949708CB016C2F0E9447
:100BD0008A05CF910895813051F018F0823069F084
:100BE000089563E08CEC90E00E948A05089563E02C
:100BF00086E292E00E948A05089563E08DEA90E023
:100C00000E948A0508959DEC899F912D1124292F1A
:100C1000269526952695220F322F330F330F230F5B
:100C2000821B282F969596959695613019F0623023
:100C3000C1F108959230A1F018F4913031F0089587
:100C40009330C9F0943011F108953AB381E090E007
:100C500002C0880F991F2A95E2F7832B8ABB08955B
:100C600037B381E090E002C0880F991F2A95E2F720
:100C7000832B87BB089534B381E090E002C0880FD6
:100C8000991F2A95E2F7832B84BB089531B381E045
:100C900090E002C0880F991F2A95E2F7832B81BB51
:100CA00008959230A9F018F4913031F008959330FE
:100CB000D9F0943029F108953AB381E090E002C070
:100CC000880F991F2A95E2F7809583238ABB0895A0
:100CD00037B381E090E002C0880F991F2A95E2F7B0
:100CE0008095832387BB089534B381E090E002C0F0
:100CF000880F991F2A95E2F78095832384BB089576
:100D000031B381E090E002C0880F991F2A95E2F785
:100D10008095832381BB08959DEC899F912D11249B
:100D2000292F269526952695220F322F330F330F24
:100D3000230F821B282F969596959695613019F072
:100D40006230C1F108959230A1F018F4913031F081
:100D500008959330C9F0943011F108953BB381E0C8
:100D600090E002C0880F991F2A95E2F7832B8BBB76
:100D7000089538B381E090E002C0880F991F2A954A
:100D8000E2F7832B88BB089535B381E090E002C081
:100D9000880F991F2A95E2F7832B85BB089532B3FC
:100DA00081E090E002C0880F991F2A95E2F7832B1B
:100DB00082BB08959230A9F018F4913031F0089573
:100DC0009330D9F0943029F108953BB381E090E05D
:100DD00002C0880F991F2A95E2F7809583238BBB69
:100DE000089538B381E090E002C0880F991F2A95DA
:100DF000E2F78095832388BB089535B381E090E0C6
:100E000002C0880F991F2A95E2F78095832385BB3E
:100E1000089532B381E090E002C0880F991F2A95AF
:100E2000E2F78095832382BB089589EF8CBF88E227
:100E300083BF83B7836083BF89B7826089BF08950A
:100E400090930C0180930B0108951F920F920FB69F
:100E50000F9211242F933F934F935F936F937F9340
:100E60008F939F93AF93BF93EF93FF93E0910B0109
:100E7000F0910C010995FF91EF91BF91AF919F9176
:100E80008F917F916F915F914F913F912F910F9033
:100E90000FBE0F901F90189583E080B986B78460CD
:100EA00086BF089584EA86BF06B607FEFDCF81B1EE
:100EB000887F8830E1F70895880F83B984E886BF7A
:100EC00006B607FEFDCF81B1887F8831E1F708952E
:100ED00083B984E886BF06B607FEFDCF81B1887F5F
:100EE0008832E1F7089584E986BF0895529886E82C
:100EF00080BD87E689B910BC579A549A539A789462
:100F00008FE39CE90197F1F700C0000008959093EA
:100F10000E0180930D0108951F920F920FB60F924C
:100F200011242F933F934F935F936F937F938F93EE
:100F30009F93AF93BF93EF93FF93E0910D01F091D7
:100F40000E010995FF91EF91BF91AF919F918F9104
:100F50007F916F915F914F913F912F910F900FBEB5
:100F60000F901F9018955058BB27AA270E94CB07B7
:100F70000C943E090E94300938F00E94370920F095
:100F800039F49F3F19F426F40C942D090EF4E095E2
:100F9000E7FB0C942709E92F0E944F0958F3BA1771
:100FA000620773078407950720F079F4A6F50C947F
:100FB00071090EF4E0950B2EBA2FA02D0B01B9018B
:100FC00090010C01CA01A0011124FF27591B99F0BF
:100FD000593F50F4503E68F11A16F040A22F232FCB
:100FE000342F4427585FF3CF469537952795A7951B
:100FF000F0405395C9F77EF41F16BA0B620B730BC2
:10100000840BBAF09150A1F0FF0FBB1F661F771F32
:10101000881FC2F70EC0BA0F621F731F841F48F4E7
:10102000879577956795B795F7959E3F08F0B0CF70
:101030009395880F08F09927EE0F97958795089557
:101040000E94030908F481E008950E9439080C9475
:101050003E090E94370958F00E94300940F029F4F7
:101060005F3F29F00C94270951110C9472090C94DC
:101070002D090E944F0968F39923B1F3552391F389
:10108000951B550BBB27AA2762177307840738F0F7
:101090009F5F5F4F220F331F441FAA1FA9F335D054
:1010A0000E2E3AF0E0E832D091505040E695001C08
:1010B000CAF72BD0FE2F29D0660F771F881FBB1FC2
:1010C000261737074807AB07B0E809F0BB0B802DA0
:1010D000BF01FF2793585F4F3AF09E3F510578F0CC
:1010E0000C9427090C9472095F3FE4F3983ED4F303
:1010F000869577956795B795F7959F5FC9F7880FA0
:10110000911D9695879597F90895E1E0660F771FF1
:10111000881FBB1F621773078407BA0720F0621B82
:10112000730B840BBA0BEE1F88F7E09508950E94AD
:10113000570988F09F5798F0B92F9927B751B0F009
:10114000E1F0660F771F881F991F1AF0BA95C9F74B
:1011500014C0B13091F00E947109B1E008950C946F
:101160007109672F782F8827B85F39F0B93FCCF322
:10117000869577956795B395D9F73EF490958095C8
:10118000709561957F4F8F4F9F4F0895E89409C0E8
:1011900097FB3EF490958095709561957F4F8F4FAA
:1011A0009F4F9923A9F0F92F96E9BB279395F695C0
:1011B000879577956795B795F111F8CFFAF4BB0F3E
:1011C00011F460FF1BC06F5F7F4F8F4F9F4F16C0A2
:1011D000882311F096E911C0772321F09EE8872F2C
:1011E000762F05C0662371F096E8862F70E060E0E8
:1011F0002AF09A95660F771F881FDAF7880F969561
:10120000879597F90895990F0008550FAA0BE0E804
:10121000FEEF16161706E807F907C0F012161306B8
:10122000E407F50798F0621B730B840B950B39F4F8
:101230000A2661F0232B242B252B21F408950A265E
:1012400009F4A140A6958FEF811D811D089597F99E
:101250009F6780E870E060E008959FEF80EC08955C
:1012600000240A9416161706180609060895002485
:101270000A9412161306140605060895092E0394FF
:10128000000C11F4882352F0BB0F40F4BF2B11F473
:1012900060FF04C06F5F7F4F8F4F9F4F089557FDD2
:1012A0009058440F551F59F05F3F71F04795880FD4
:1012B00097FB991F61F09F3F79F08795089512166B
:1012C00013061406551FF2CF4695F1DF08C0161617
:1012D00017061806991FF1CF8695710561050894C8
:1012E0000895E894BB2766277727CB0197F90895DF
:1012F0000E948B090C943E090E94300938F00E942C
:10130000370920F0952311F00C9427090C942D092E
:1013100011240C9472090E944F0970F3959FC1F338
:10132000950F50E0551F629FF001729FBB27F00D93
:10133000B11D639FAA27F00DB11DAA1F649F6627E8
:10134000B00DA11D661F829F2227B00DA11D621F37
:10135000739FB00DA11D621F839FA00D611D221FF1
:10136000749F3327A00D611D231F849F600D211DD5
:10137000822F762F6A2F11249F5750409AF0F1F058
:1013800088234AF0EE0FFF1FBB1F661F771F881FC1
:1013900091505040A9F79E3F510580F00C942709C9
:1013A0000C9472095F3FE4F3983ED4F386957795E9
:1013B0006795B795F795E7959F5FC1F7FE2B880F67
:1013C000911D9695879597F90895A1E21A2EAA1B6B
:1013D000BB1BFD010DC0AA1FBB1FEE1FFF1FA217E5
:1013E000B307E407F50720F0A21BB30BE40BF50BE2
:1013F000661F771F881F991F1A9469F7609570956B
:10140000809590959B01AC01BD01CF010895FC0131
:1014100088279927E89421912032E9F3293010F0A8
:101420002E30C8F32B3241F02D3239F4689404C0C9
:101430000E94480A820F911D219120532A30C0F347
:101440001EF4909581959F4F0895FB01DC010D904E
:101450000020E9F7119701900D920020E1F708951F
:10146000FB01DC018D91019080190110D9F3990BDA
:101470000895FB01DC014150504048F001900D926D
:101480000020C9F701C01D9241505040E0F7089577
:101490007AE0979F902D879F802D910D11240895BC
:1014A000AEE0B0E0E6E5FAE00C94110D0D891E897E
:1014B00086E08C831A8309838FEF9FE79E838D8359
:1014C000AE01475E5F4F6F89788DCE0101960E9415
:1014D000720AEF81F885E00FF11F10822E96E4E08A
:1014E0000C942D0DABE0B0E0E8E7FAE00C94030DAE
:1014F0006C017B018A01FC0117821682838181FFC6
:10150000CCC1CE0101963C01F6019381F70193FD18
:10151000859193FF81917F01882309F4BAC18532B7
:1015200039F493FD859193FF81917F01853229F4F0
:10153000B60190E00E94690CE7CF912C212C312C50
:10154000FFE1F315D8F08B3279F038F4803279F07E
:101550008332A1F4232D20611DC08D3261F08033D0
:1015600069F4232D216016C0832D8260382EE32D6F
:10157000E4603E2E2AC0F32DF8601DC037FC2DC05C
:1015800020ED280F2A3040F08E32B9F436FC81C1AC
:10159000232D2064322E19C036FE06C08AE0989EA4
:1015A000200D1124922E11C0EAE02E9E200D112450
:1015B000222EF32DF0623F2E08C08C3621F4832DAD
:1015C0008068382E02C0883641F4F70193FD85917A
:1015D00093FF81917F018111B3CF982F9F7D955407
:1015E000933028F40C5F1F4F9FE399830DC083361F
:1015F00031F0833771F0833509F059C021C0F8010B
:10160000808189830E5F1F4F88248394912C53011E
:1016100013C02801F2E04F0E511CF801A080B180E8
:1016200036FE03C0692D70E002C06FEF7FEFC50189
:101630000E945E0C4C018201F32DFF773F2E16C0F5
:10164000280122E0420E511CF801A080B18036FE34
:1016500003C0692D70E002C06FEF7FEFC5010E94EB
:10166000530C4C01F32DF0683F2E820133FC1BC05C
:10167000822D90E088169906B0F4B60180E290E0E1
:101680000E94690C2A94F4CFF50137FC859137FE4E
:1016900081915F01B60190E00E94690C21102A94AB
:1016A00021E0821A91088114910471F7E8C0843610
:1016B00011F0893641F5F80137FE07C0608171816C
:1016C000828193810C5F1F4F08C060817181072E5A
:1016D000000C880B990B0E5F1F4FF32DFF763F2EEA
:1016E00097FF09C090958095709561957F4F8F4FBA
:1016F0009F4FF0683F2E2AE030E0A3010E94A50C26
:10170000882E861845C0853731F4232D2F7EB22EC2
:101710002AE030E025C0932D997FB92E8F36C1F095
:1017200018F4883579F0B5C0803719F0883721F082
:10173000B0C0E92FE061BE2EB4FE0DC0FB2DF460F9
:10174000BF2E09C034FE0AC0292F2660B22E06C063
:1017500028E030E005C020E130E002C020E132E0C6
:10176000F801B7FE07C060817181828193810C5FAF
:101770001F4F06C06081718180E090E00E5F1F4FB7
:10178000A3010E94A50C882E8618FB2DFF773F2E03
:1017900036FE0DC0232D2E7FA22E891458F434FE60
:1017A0000BC032FC09C0832D8E7EA82E05C0B82C3C
:1017B000A32C03C0B82C01C0B92CA4FE0FC0FE019D
:1017C000E80DF11D8081803321F49A2D997EA92E98
:1017D00009C0A2FE06C0B394B39404C08A2D8678D3
:1017E00009F0B394A3FC11C0A0FE06C0B21488F4A3
:1017F000280C922C9B180EC0B21460F4B60180E243
:1018000090E00E94690CB394F7CFB21418F42B182F
:1018100002C0982C212CA4FE10C0B60180E390E0F9
:101820000E94690CA2FE17C0A1FC03C088E790E0EB
:1018300002C088E590E0B6010CC08A2D867859F088
:10184000A1FE02C08BE201C080E2A7FC8DE2B601DE
:1018500090E00E94690C891438F4B60180E390E0AE
:101860000E94690C9A94F7CF8A94F301E80DF11D58
:101870008081B60190E00E94690C8110F5CF222092
:1018800009F442CEB60180E290E00E94690C2A94ED
:10189000F6CFF6018681978102C08FEF9FEF2B96DE
:1018A000E2E10C941F0DFC010590615070400110A5
:1018B000D8F7809590958E0F9F1F0895FC01615079
:1018C000704001900110D8F7809590958E0F9F1F62
:1018D00008950F931F93CF93DF93FB01238121FD85
:1018E00003C08FEF9FEF2CC022FF16C046815781A7
:1018F000248135814217530744F4A081B1819D01B1
:101900002F5F3F4F318320838C93268137812F5F58
:101910003F4F3783268314C08B01EC01FB01008409
:10192000F185E02D0995892BE1F6D80116968D9168
:101930009C911797019617969C938E931697CE01BC
:10194000DF91CF911F910F910895FA01AA272830B6
:1019500051F1203181F1E8946F936E7F6E5F7F4F7C
:101960008F4F9F4FAF4FB1E03ED0B4E03CD0670FF8
:10197000781F891F9A1FA11D680F791F8A1F911D4B
:10198000A11D6A0F711D811D911DA11D20D009F49B
:1019900068943F912AE0269F11243019305D3193DD
:1019A000DEF6CF010895462F4770405D4193B3E0C6
:1019B0000FD0C9F7F6CF462F4F70405D4A3318F06D
:1019C000495D31FD4052419302D0A9F7EACFB4E01E
:1019D000A6959795879577956795BA95C9F70097D6
:1019E0006105710508959B01AC010A2E0694579577
:1019F000479537952795BA95C9F7620F731F841FCE
:101A0000951FA01D08952F923F924F925F926F9263
:101A10007F928F929F92AF92BF92CF92DF92EF927E
:101A2000FF920F931F93CF93DF93CDB7DEB7CA1BFF
:101A3000DB0B0FB6F894DEBF0FBECDBF09942A882A
:101A4000398848885F846E847D848C849B84AA84D2
:101A5000B984C884DF80EE80FD800C811B81AA815F
:101A6000B981CE0FD11D0FB6F894DEBF0FBECDBF2A
:081A7000ED010895F894FFCF89
:101A78002D5A2D5A5377697463684D6F6465004811
:101A880069203A2900424943455053205253542073
:101A980048414E4400436C6170702B0053746F7062
:101AA80000436C6170702D00426173652B004261C8
:101AB80073652D005265736574004D6F746F7220E5
:101AC8004D6F646500466F727761726400465744D3
:101AD800004261636B7761726400425744004C6551
:101AE8006674004C46540052696768740052485442
:101AF80000252E3266004572726F7220466F726D35
:041B08006174000004
:00000001FF
